:100000000C942A000C94C61A0C9447000C944700D8
:100010000C9447000C9447000C9447000C94470044
:100020000C9447000C9447000C94EB2B0C94BE2BC3
:100030000C9447000C9447000C9447000C94470024
:100040000C9447000C9447000C9447000C94470014
:100050000C94470011241FBECFE5D4E0DEBFCDBF16
:1000600011E0A0E6B0E0EEE9FDE602C005900D92D9
:10007000AA37B107D9F711E0AAE7B1E001C01D9294
:10008000A938B107E1F70E94182C0C94CD360C94D6
:100090000000EF92FF920F931F937B018C0120E0F1
:1000A00030E040E05FE40E94821188238CF0C801B8
:1000B000B70120E030E040E05FE40E944E0F0E9474
:1000C000E2119B01AC01205030404040504806C036
:1000D000C801B7010E94E2119B01AC01B901CA013C
:1000E0001F910F91FF90EF900895A0E0B0E0EBE733
:1000F000F0E00C9496367B018C0120E030E040E883
:100100005FE30E94B21188234CF4AA24BB24CC24C0
:10011000DD24EE24FF2400E010E086C0C801B70112
:1001200020E030E040E85FE40E94B211882354F4FC
:10013000C801B7010E9449005B016C01EE24FF2455
:10014000870172C0C801B70120E030E040E85FE5F8
:100150000E94B21187FD0FC0AA24AA94BB24BA94AE
:10016000CC24CA94DD24DA94EE24EA94FF24FA9491
:100170000FEF1FEF59C0C801B70120E030E040E8A1
:100180005FE20E94AC0F7B018C0122243324210109
:1001900090E1A92EB12CC12CD12CC0E0D0E061E0BF
:1001A00070E080E090E00A2C04C0660F771F881F83
:1001B000991F0A94D2F70E9436123B014C01C801E4
:1001C000B701A40193010E948211882364F02A28B8
:1001D0003B284C285D28C801B701A40193010E9467
:1001E000A6107B018C01D694C794B794A79421964E
:1001F000C530D105A1F6C801B70120E030E040E8E4
:100200005FE40E94AC0F0E9449005B016C019B01FE
:10021000A60160E070E080E090E0022D0E94AF1245
:1002200059016A017B018C019501A601B701C80142
:10023000CDB7DEB7E2E10C94B236AEE5B0E0E3E272
:10024000F1E00C949636A8E04E010894811C911CB4
:10025000F4016A2E11926A94E9F729833A834B8359
:100260005C836D837E838F839887CE010996FC0122
:100270001192AA95E9F7A986BA86CB86DC86ED8627
:10028000FE860F87188B29843A844B845C84ED8426
:10029000FE840F85188969807A808B809C806DA68A
:1002A0007EA68FA698AA6D807E808F809884E114A8
:1002B000F1040105110509F0B3C362147304840449
:1002C000950408F03DC100E0201600E0300601E092
:1002D000400600E0500688F41FEF21163104410467
:1002E000510439F030F048E0E42EF12C012D112DAD
:1002F00018C0EE24FF24870114C020E0221620E05D
:10030000320620E0420621E0520630F038E1E32ECA
:10031000F12C012D112D05C020E1E22EF12C012D33
:10032000112DD201C1010E2C04C0B695A795979549
:1003300087950A94D2F78A589F4FDC012C9180E26E
:1003400090E0A0E0B0E08E199F09A00BB10B7C01FA
:100350008D01E21AF10801091109E114F104010506
:100360001105A1F10E2C04C0220C331C441C551C99
:100370000A94D2F7A40193010E2C04C0220F331F5C
:10038000441F551F0A94D2F780E290E08E199F090E
:100390006DA47EA48FA498A804C0969487947794A3
:1003A00067948A95D2F7622A732A842A952AADA483
:1003B000BEA4CFA4D8A804C0AA0CBB1CCC1CDD1CB6
:1003C000EA94D2F7ADA6BEA6CFA6D8AA6201EE24C3
:1003D000FF24CDAADEAAEFAAF8AE92018101207017
:1003E000307009AF1AAF2BAF3CAFC401B301A70106
:1003F00096010E9474367B018C01C401B3012DA9C2
:100400003EA94FA958AD0E947436C901DA013C01DA
:100410004D01C401B30129AD3AAD4BAD5CAD0E94B5
:1004200055369B01AC018701FF24EE24ADA4BEA488
:10043000CFA4D8A8C601AA27BB2757016801A82ABC
:10044000B92ACA2ADB2AA216B306C406D506E0F4E6
:1004500008946108710881089108A20CB31CC41C9F
:10046000D51CA214B304C404D50470F0A216B306BC
:10047000C406D50648F408946108710881089108FB
:10048000A20CB31CC41CD51CA21AB30AC40AD50AF8
:10049000C601B5012DA93EA94FA958AD0E947436D9
:1004A0007B018C01C601B5012DA93EA94FA958AD0C
:1004B0000E947436C901DA015C016D01C601B50103
:1004C00029AD3AAD4BAD5CAD0E9455369B01AC01F8
:1004D0008701FF24EE248DA59EA5AFA5B8A9A07025
:1004E000B070E82AF92A0A2B1B2BE216F306040740
:1004F0001507C0F40894A108B108C108D108E20C9E
:10050000F31C041D151DE214F3040405150550F039
:10051000E216F3060407150728F40894A108B108A9
:10052000C108D108D3019927882786017501E82AD7
:10053000F92A0A2B1B2BE9AAFAAA0BAB1CABCFC4D6
:10054000211431044104510471F461E070E080E051
:1005500090E020E030E040E050E00E947436C901B5
:10056000DA011C012D0100E0201600E0300601E058
:10057000400600E0500688F41FEF211631044104C4
:10058000510431F028F048E050E060E070E017C01E
:1005900040E050E060E070E012C020E0221620E071
:1005A000320620E0420621E0520628F048E150E001
:1005B00060E070E004C040E150E060E070E0D20133
:1005C000C101042E04C0B695A795979587950A9406
:1005D000D2F78A589F4FDC012C91E0E2EE2EF12CED
:1005E000012D112DD801C701841B950BA60BB70B4C
:1005F000821B9109A109B1090097A105B10561F418
:1006000064015301A218B308C408D50831E0632E71
:10061000712C812C912C1EC16F968FAF6F97082E75
:1006200004C0220C331C441C551C0A94D2F7EE2D36
:10063000E81B640153010E2E04C0D694C794B794EE
:10064000A7940A94D2F7A40193016F960FAC6F9709
:1006500004C0220F331F441F551F0A94D2F76DA404
:100660007EA48FA498A80E2E04C0969487947794A5
:1006700067940A94D2F784017301E22AF32A042BC7
:10068000152BE9A6FAA60BA71CA7320188249924EA
:10069000920181012070307021960CAF1DAF2EAFFA
:1006A0003FAF2197C601B501A40193010E947436A2
:1006B0007B018C01C601B501A40193010E9474362F
:1006C000C901DA0125968CAF9DAFAEAFBFAF2597BC
:1006D000BC01CD0121962CAD3DAD4EAD5FAD219756
:1006E0000E9455369B01AC018701FF24EE24A9A48A
:1006F000BAA4CBA4DCA4C601AA27BB275C016D0168
:10070000AE28BF28C02AD12AA216B306C406D50631
:1007100060F525966CAD7DAD8EAD9FAD2597615092
:1007200070408040904025966CAF7DAF8EAF9FAFFC
:100730002597A20CB31CC41CD51CA214B304C4047A
:10074000D50498F0A216B306C406D50670F461501D
:1007500070408040904025966CAF7DAF8EAF9FAFCC
:100760002597A20CB31CC41CD51CA21AB30AC40A38
:10077000D50AC601B501A40193010E9474367B011C
:100780008C01C601B501A40193010E947436C90110
:10079000DA013C014D01C401B30121962CAD3DAD00
:1007A0004EAD5FAD21970E9455369B01AC0187018C
:1007B000FF24EE2489A59AA5ABA5BCA5A070B070B6
:1007C00057016801A82AB92ACA2ADB2AA216B30649
:1007D000C406D506E0F40894610871088108910800
:1007E000A20CB31CC41CD51CA214B304C404D504AD
:1007F00070F0A216B306C406D50648F40894610842
:10080000710881089108A20CB31CC41CD51C8DA5CD
:100810009EA5AFA5B8A96F960FAC6F9704C0880FBF
:10082000991FAA1FBB1F0A94D2F78DA79EA7AFA737
:10083000B8ABA21AB30AC40AD50A2596ECACFDAC33
:100840000EAD1FAD2597D70199278827682A792AE9
:100850008A2A9B2A82012227332729960CAF1DAFB3
:100860002EAF3FAF2997A2019101407050702D9695
:100870002CAF3DAF4EAF5FAF2D97C601B5012996A6
:100880002CAD3DAD4EAD5FAD29970E9474367B0116
:100890008C01C601B50129962CAD3DAD4EAD5FADC5
:1008A00029970E947436C901DA0161968CAF9DAF19
:1008B000AEAFBFAF6197BC01CD012D962CAD3DAD64
:1008C0004EAD5FAD2D970E9455369B01AC0187015F
:1008D000FF24EE24ADA4BEA4CFA4D8A8C601AA27A5
:1008E000BB2757016801A82AB92ACA2ADB2AA216FF
:1008F000B306C406D50660F561966CAD7DAD8EADD0
:100900009FAD6197615070408040904061966CAFA0
:100910007DAF8EAF9FAF6197A20CB31CC41CD51CDA
:10092000A214B304C404D50498F0A216B306C406F6
:10093000D50670F4615070408040904061966CAF75
:100940007DAF8EAF9FAF6197A20CB31CC41CD51CAA
:10095000A21AB30AC40AD50AC601B50129962CAD5C
:100960003DAD4EAD5FAD29970E9474367B018C0181
:10097000C601B50129962CAD3DAD4EAD5FAD2997B1
:100980000E947436C901DA015C016D01C601B5012E
:100990002D962CAD3DAD4EAD5FAD2D970E945536D9
:1009A0009B01AC018701FF24EE248DA59EA5AFA578
:1009B000B8A9A070B070E82AF92A0A2B1B2BE216FE
:1009C000F30604071507C0F40894A108B108C1088C
:1009D000D108E20CF31C041D151DE214F3040405F8
:1009E000150550F0E216F3060407150728F40894DD
:1009F000A108B108C108D1086196ECACFDAC0EAD00
:100A00001FAD6197D7019927882796018501082B8B
:100A1000192B2A2B3B2B09AB1AAB2BAB3CAB62C27D
:100A20006E147F048006910608F451C220E0E2169D
:100A300020E0F20621E0020720E0120788F43FEFF1
:100A4000E316F1040105110531F028F048E050E00B
:100A500060E070E017C040E050E060E070E012C07D
:100A600040E0E41640E0F40640E0040741E01407EB
:100A700028F048E150E060E070E004C040E150E060
:100A800060E070E0D801C701042E04C0B695A795B8
:100A9000979587950A94D2F78A589F4FDC012C913D
:100AA00030E2A32EB12CC12CD12CD601C501841B60
:100AB000950BA60BB70B821B9109A109B1090097F1
:100AC000A105B10589F4E614F7040805190508F431
:100AD000F2C16DA47EA48FA498A862147304840448
:100AE000950408F0E8C1F3C16E968FAF6E97082E9B
:100AF00004C0EE0CFF1C001F111F0A94D2F76A2DD0
:100B0000681BD201C101062E04C0B695A795979522
:100B100087950A94D2F75C016D01AE28BF28C02AE0
:100B2000D12AADA2BEA2CFA2D8A6720161016E9653
:100B30000FAC6E9704C0CC0CDD1CEE1CFF1C0A949D
:100B4000D2F7C9A2DAA2EBA2FCA264015301062EDD
:100B500004C0D694C794B794A7940A94D2F7D4014A
:100B6000C3016E960FAC6E9704C0880F991FAA1F21
:100B7000BB1F0A94D2F7EDA4FEA40FA518A904C0C8
:100B800016950795F794E7946A95D2F737014801CF
:100B9000682A792A8A2A9B2A6D8E7E8E8F8E98A249
:100BA000EDA0FEA00FA118A5380188249924980172
:100BB00087012070307065960CAF1DAF2EAF3FAF30
:100BC0006597C601B501A40193010E9474367B01AB
:100BD0008C01C601B501A40193010E947436C901BC
:100BE000DA011C012D01C201B10165962CAD3DADAC
:100BF0004EAD5FAD65970E9455369B01AC018701F4
:100C0000FF24EE24AD8CBE8CCF8CD8A0C601AA27C1
:100C1000BB2757016801A82AB92ACA2ADB2AA216CB
:100C2000B306C406D50600F508942108310841082A
:100C30005108EDA0FEA00FA118A5AE0CBF1CC01E50
:100C4000D11EAE14BF04C006D10670F0A216B306C2
:100C5000C406D50648F40894210831084108510813
:100C6000AE0CBF1CC01ED11EA21AB30AC40AD50AFC
:100C7000C601B501A40193010E9474367B018C0169
:100C8000C601B501A40193010E947436C901DA01BD
:100C90003C014D01C401B30165962CAD3DAD4EAD97
:100CA0005FAD65970E9455369B01AC018701FF241B
:100CB000EE248D8D9E8DAF8DB8A1A070B0705701C0
:100CC0006801A82AB92ACA2ADB2AA216B306C406D2
:100CD000D50600F5089461087108810891086DA196
:100CE0007EA18FA198A5A60EB71EC81ED91EA61656
:100CF000B706C806D90670F0A216B306C406D50614
:100D000048F408946108710881089108A60EB71E7E
:100D1000C81ED91ED601C501821B930BA40BB50BAF
:100D2000898F9A8FAB8FBC8FD10199278827640157
:100D30005301A82AB92ACA2ADB2AA9AABAAACBAA85
:100D4000DCAA860175012FEF3FEF40E050E0E22280
:100D5000F32204231523A601662777276D964CAF4F
:100D60005DAF6EAF7FAF6D97A9A0BAA0CBA0DCA09E
:100D70006FEF7FEF80E090E0A622B722C822D92251
:100D800089A19AA1ABA1BCA11D0144245524C8018D
:100D9000B701A60195010E94553669966CAF7DAFEB
:100DA0008EAF9FAF6997C801B701A20191010E9460
:100DB00055363B014C016D966CAD7DAD8EAD9FAD52
:100DC0006D97A60195010E9455367B018C016D96A9
:100DD0006CAD7DAD8EAD9FAD6D97A20191010E946E
:100DE00055365B016C01A8019701260D371D481D82
:100DF000591D69966CAC7DAC8EAC9FAC6997C401F3
:100E0000AA27BB27280F391F4A1F5B1F2E153F0536
:100E10004007510748F4E12CF12C61E0062F112D19
:100E2000AE0CBF1CC01ED11ECA01AA27BB27BC0125
:100E3000CD016A0D7B1D8C1D9D1D698C7A8C8B8C60
:100E40009C8C661677068806990640F1661577052C
:100E50008805990509F043C0D90199278827699623
:100E60002CAD3DAD4EAD5FAD699740705070820FB7
:100E7000931FA41FB51F2DA53EA54FA558A96E967B
:100E80000FAC6E9704C0220F331F441F551F0A94E6
:100E9000D2F7281739074A075B0708F509A91AA9E5
:100EA0002BA93CA9015010402040304009AB1AAB9F
:100EB0002BAB3CAB14C066247724430121E030E027
:100EC00040E050E029AB3AAB4BAB5CAB0BC06624C7
:100ED0007724430119AA1AAA1BAA1CAA03C06624D4
:100EE00077244301FE01719688E0DF011D928A9507
:100EF000E9F7A9A8BAA8CBA8DCA8A98ABA8ACB8A9C
:100F0000DC8A6D8A7E8A8F8A988E29A93A894B89D4
:100F10005C89662D7E898F89988DC25ADF4FE2E108
:100F20000C94B236ABE5B0E0E8E9F7E00C94963605
:100F3000A8E04E010894811C911CF4016A2E1192C4
:100F40006A94E9F729833A834B835C836D837E83BC
:100F50008F839887CE010996FC011192AA95E9F733
:100F6000A986BA86CB86DC86ED86FE860F87188B2F
:100F700029843A844B845C84AD84BE84CF84D88831
:100F800029813A814B815C8169962FAF69976A9676
:100F90003FAF6A976B964FAF6B976C965FAF6C974E
:100FA0006C966CAC7DAC8EAC9FAC6C9769AA7AAA3F
:100FB0008BAA9CAA6D817E818F8198853B014C0113
:100FC0006DAA7EAA8FAA98AEA114B104C104D1045F
:100FD00009F004C3621473048404950408F000C18A
:100FE00000E0201600E0300601E0400600E0500678
:100FF00088F41FEF211631044104510439F030F018
:1010000088E0E82EF12C012D112D18C0EE24FF24CC
:10101000870114C040E0241640E0340640E0440656
:1010200041E0540630F0B8E1EB2EF12C012D112DEA
:1010300005C0A0E1EA2EF12C012D112DD201C10134
:101040000E2C04C0B695A795979587950A94D2F76C
:101050008A589F4FDC012C9180E290E0A0E0B0E044
:101060008E199F09A00BB10B5C016D01A21AB1088A
:10107000C108D108A9AEBAAECBAEDCAEA114B104A2
:10108000C104D10409F43FC069AD062E04C0220C8E
:10109000331C441C551C0A94D2F7A4019301062E5C
:1010A00004C0220F331F441F551F0A94D2F780E259
:1010B00090E08A199B096C96CCACDDACEEACFFAC31
:1010C0006C9704C0F694E794D794C7948A95D2F7A6
:1010D00087017601E22AF32A042B152BEDAAFEAA3A
:1010E0000FAB18AF6C968CAD9DADAEADBFAD6C9730
:1010F00004C0880F991FAA1FBB1F6A95D2F789AB3E
:101100009AABABABBCAB320188249924B201A101EC
:101110006070707021964CAF5DAF6EAF7FAF21975E
:101120006DA97EA98FA998ADA40193010E94743680
:101130007B018C016DA97EA98FA998ADA4019301B3
:101140000E947436CA01B90121962CAD3DAD4EAD59
:101150005FAD21970E9455369B01AC018701FF24AA
:10116000EE24A9A8BAA8CBA8DCA8C601AA27BB2749
:1011700057016801A82AB92ACA2ADB2AA216B3068F
:10118000C406D50690F4A20CB31CC41CD51CA21432
:10119000B304C404D50448F0A216B306C406D506A9
:1011A00020F4A20CB31CC41CD51CA21AB30AC40A96
:1011B000D50AC601B501A40193010E9474367B01D2
:1011C0008C01C601B501A40193010E947436CA01C5
:1011D000B90121962CAD3DAD4EAD5FAD2197BAC1A1
:1011E000211431044104510471F461E070E080E0A5
:1011F00090E020E030E040E050E00E947436C90109
:10120000DA011C012D0100E0201600E0300601E0AB
:10121000400600E0500688F41FEF21163104410417
:10122000510439F030F068E0E62EF12C012D112D3B
:1012300018C0EE24FF24870114C040E0241640E0CB
:10124000340640E0440641E0540630F058E1E52E13
:10125000F12C012D112D05C040E1E42EF12C012DC2
:10126000112DD201C1010E2C04C0B695A7959795FA
:1012700087950A94D2F78A589F4FDC012C9130E26F
:10128000A32EB12CC12CD12CD601C5018E199F09DA
:10129000A00BB10B7C018D01E21AF10801091109C3
:1012A000E9AEFAAE0BAF1CAFE114F1040105110574
:1012B00039F464015301A218B308C408D508E2C088
:1012C000F9AC6896FFAE68970F2C04C0220C331C53
:1012D000441C551C0A94D2F78A2D8F1964015301BE
:1012E000082E04C0D694C794B794A7940A94D2F752
:1012F000A401930104C0220F331F441F551FFA9409
:10130000D2F76C966CAC7DAC8EAC9FAC6C9704C085
:1013100096948794779467948A95D2F784017301A1
:10132000E22AF32A042B152BEDA6FEA60FA718AB75
:10133000320188249924B201A10160707070259651
:101340004CAF5DAF6EAF7FAF2597C601B501A4016D
:1013500093010E9474367B018C01C601B501A40182
:1013600093010E947436CA01B90125962CAD3DAD9A
:101370004EAD5FAD25970E9455369B01AC018701AC
:10138000FF24EE24ADA4BEA4CFA4D8A8C601AA27EA
:10139000BB275C016D01AE28BF28C02AD12AA21646
:1013A000B306C406D50690F4A20CB31CC41CD51C0D
:1013B000A214B304C404D50448F0A216B306C406AC
:1013C000D50620F4A20CB31CC41CD51CA21AB30A67
:1013D000C40AD50AC601B501A40193010E9474365E
:1013E0007B018C01C601B501A40193010E947436F2
:1013F000CA01B90125962CAD3DAD4EAD5FAD259727
:101400000E9455369B01AC018701FF24EE248DA577
:101410009EA5AFA5B8A9A070B07057016801A82A11
:10142000B92ACA2ADB2AA216B306C406D50690F446
:10143000A20CB31CC41CD51CA214B304C404D50450
:1014400048F0A216B306C406D50620F4A20CB31CBD
:10145000C41CD51C6C96ECACFDAC0EAD1FAD6C97EE
:1014600068960FAC689704C0EE0CFF1C001F111F9C
:101470000A94D2F7E9AAFAAA0BAB1CABA21AB30AD8
:10148000C40AD50A320188249924B201A1016070EE
:10149000707029964CAF5DAF6EAF7FAF2997C601D4
:1014A000B501A40193010E9474367B018C01C60131
:1014B000B501A40193010E947436CA01B9012996AD
:1014C0002CAD3DAD4EAD5FAD29970E9455369B01C9
:1014D000AC018701FF24EE24A9A8BAA8CBA8DCA8F8
:1014E000C601AA27BB2757016801A82AB92ACA2A18
:1014F000DB2AA216B306C406D50690F4A20CB31CD0
:10150000C41CD51CA214B304C404D50448F0A2160C
:10151000B306C406D50620F4A20CB31CC41CD51C0B
:10152000A21AB30AC40AD50AC601B501A4019301DF
:101530000E9474367B018C01C601B501A4019301A0
:101540000E947436CA01B90129962CAD3DAD4EAD4D
:101550005FAD29970E9455369B01AC018701FF249E
:10156000EE2489A99AA9ABA9BCA9A070B070E82AF9
:10157000F92A0A2B1B2BE216F3060407150790F431
:10158000E20CF31C041D151DE214F30404051505FB
:1015900048F0E216F3060407150720F4E20CF31CEA
:1015A000041D151DE21AF30A040B150BD801C7011F
:1015B00009AC04C0B695A795979587950A94D2F77C
:1015C000898B9A8BAB8BBC8B1D8A1E8A1F8A188EC7
:1015D000282F3A894B895C896D890CC36A147B0476
:1015E0008C049D0408F409C300E0A01600E0B006D6
:1015F00001E0C00600E0D00688F41FEFA116B10498
:10160000C104D10439F030F028E0E22EF12C012D94
:10161000112D18C0EE24FF24870114C040E0A41649
:1016200040E0B40640E0C40641E0D40630F098E162
:10163000E92EF12C012D112D05C080E1E82EF12CB1
:10164000012D112DD601C5010E2C04C0B695A7950C
:10165000979587950A94D2F78A589F4FDC012C9171
:1016600080E290E0A0E0B0E08E199F09A00BB10BE2
:10167000821B9109A109B1090097A105B10509F0E3
:101680004FC0A614B704C804D90458F06C96ECAC4B
:10169000FDAC0EAD1FAD6C97E214F3040405150507
:1016A00068F16C96ECACFDAC0EAD1FAD6C97E2181A
:1016B000F30804091509A40193012A193B094C09EF
:1016C0005D09AA24BB2465016C966CAD7DAD8EAD21
:1016D0009FAD6C976E157F058007910728F4B1E0E8
:1016E000AB2EB12CC12CD12CDA01C9018A199B096E
:1016F000AC09BD098DAB9EABAFABB8AFE98AFA8A36
:101700000B8B1C8B6DA87EA88FA898AC6D8A7E8AE7
:101710008F8A988E2E2D3A894B895C896DA96AC271
:1017200067968FAF6797A6019501082E04C0220F18
:10173000331F441F551F0A94D2F7A0E2AA2EA81AFD
:101740006696AFAE6697D201C10104C0B695A79563
:1017500097958795AA94D2F76C017D01C22AD32A66
:10176000E42AF52AC9A6DAA6EBA6FCA68201710135
:1017700067960FAC679704C0EE0CFF1C001F111F8B
:101780000A94D2F7EDA2FEA20FA318A76401530199
:1017900066960FAC669704C0D694C794B794A79486
:1017A0000A94D2F7A401930167960FAC679704C01F
:1017B000220F331F441F551F0A94D2F76C968CAD2D
:1017C0009DADAEADBFAD6C9766960FAC669704C08D
:1017D000B695A795979587950A94D2F73C014D0148
:1017E000622A732A842A952A69A27AA28BA29CA2D1
:1017F0006C96ECACFDAC0EAD1FAD6C9767960FAC64
:10180000679704C0EE0CFF1C001F111F0A94D2F74B
:10181000ED8EFE8E0F8F18A349A55AA56BA57CA54A
:101820003B0188249924607070702D964CAF5DAF99
:101830006EAF7FAF2D97C601B501A40193010E9441
:1018400074367B018C01C601B501A40193010E948D
:101850007436C901DA011C012D01C201B1012D96B6
:101860002CAD3DAD4EAD5FAD2D970E9455369B0121
:10187000AC018701FF24EE24A9A0BAA0CBA0DCA074
:10188000C601AA27BB2757016801A82AB92ACA2A74
:10189000DB2AA216B306C406D50600F50894210873
:1018A000310841085108E9A4FAA40BA51CA5AE0C07
:1018B000BF1CC01ED11EAE14BF04C006D10670F0FE
:1018C000A216B306C406D50648F4089421083108C8
:1018D00041085108AE0CBF1CC01ED11EA21AB30A8B
:1018E000C40AD50AC601B501A40193010E94743649
:1018F0007B018C01C601B501A40193010E947436DD
:10190000C901DA013C014D01C401B3012D962CAD92
:101910003DAD4EAD5FAD2D970E9455369B01AC019C
:101920008701FF24EE2489A19AA1ABA1BCA1A070DC
:10193000B07057016801A82AB92ACA2ADB2AA21660
:10194000B306C406D50600F508946108710881083D
:10195000910869A57AA58BA59CA5A60EB71EC81EE1
:10196000D91EA616B706C806D90670F0A216B30689
:10197000C406D50648F408946108710881089108E6
:10198000A60EB71EC81ED91ED601C501821B930B19
:10199000A40BB50B898F9A8FAB8FBC8FD101992780
:1019A000882784017301E82AF92A0A2B1B2B4FEFA1
:1019B000A42E4FEFB42EC12CD12CAE20BF20C022BC
:1019C000D1227801002711276DA07EA08FA098A4B6
:1019D0004FEF5FEF60E070E064227522862297226D
:1019E0008DA19EA1AFA1B8A5BD01882799276596B5
:1019F0006CAF7DAF8EAF9FAF6597C601B501A401F7
:101A000093010E94553661966CAF7DAF8EAF9FAF4C
:101A10006197C601B50165962CAD3DAD4EAD5FAD8C
:101A200065970E9455361B012C01C801B701A4011E
:101A300093010E9455365B016C01C801B7016596A0
:101A40002CAD3DAD4EAD5FAD65970E9455367B0127
:101A50008C01A6019501220D331D441D551D619673
:101A60006CAC7DAC8EAC9FAC6197C401AA27BB2740
:101A7000280F391F4A1F5B1F2A153B054C055D05C2
:101A800048F4812C912CE1E0AE2EB12CE80CF91C2D
:101A90000A1D1B1DCA01AA27BB2757016801A80EF2
:101AA000B91ECA1EDB1EA9013327222761968CAD01
:101AB0009DADAEADBFAD6197A070B070280F391F5E
:101AC0004A1F5B1FE98CFA8C0B8D1C8DEA14FB04FA
:101AD0000C051D0570F0AE14BF04C006D10669F5F3
:101AE0006D8D7E8D8F8D98A1621773078407950782
:101AF00020F5DA01C9016DA07EA08FA098A48619F7
:101B00009709A809B909E9A4FAA40BA51CA5AE1860
:101B1000BF08C00AD10AEE24FF248701281739071D
:101B20004A075B0728F421E0E22EF12C012D112D4C
:101B3000AE18BF08C00AD10A02C0DA01C9016D8C13
:101B40007E8C8F8C98A0681A790A8A0A9B0A498D24
:101B50005A8D6B8D7C8D4A195B096C097D095A0180
:101B60006B012224332421016D8D7E8D8F8D98A1F0
:101B7000661577058805990528F481E0282E312C13
:101B8000412C512C86017501E218F308040915094E
:101B9000A801970166960FAC669704C0220F331F09
:101BA000441F551F0A94D2F7D401C30167960FACA6
:101BB000679704C0B695A795979587950A94D2F72D
:101BC000282B392B4A2B5B2B298B3A8B4B8B5C8B2D
:101BD00067960FAC679704C016950795F794E7943E
:101BE0000A94D2F7ED8AFE8A0F8B188F3A894B89B7
:101BF0005C896E2D7E898F89988DC55ADF4FE2E111
:101C00000C94B236A0E0B0E0E8E0FEE00C9496362A
:101C1000DC012B01FA019C91923008F439C1EB01EF
:101C20008881823008F433C1943069F4843009F03B
:101C30002FC111969C9111978981981709F428C199
:101C4000AEE6B0E025C1843009F421C18230A9F4A8
:101C5000923009F01DC19A01AD0188E0EA010990B6
:101C6000AE01E90109929E018150C1F7E20189812B
:101C700011969C918923818308C1923009F407C190
:101C800012962D903C901397EB018A819B811496BC
:101C9000AD90BD90CD90DC901797EC80FD800E81CB
:101CA0001F819101281B390BB90137FF04C066273A
:101CB0007727621B730B603271050CF061C012163E
:101CC00013066CF537014801062E04C096948794DC
:101CD000779467940A94D2F721E030E040E050E036
:101CE00004C0220F331F441F551F6A95D2F721509D
:101CF0003040404050402E213F21402351232115A8
:101D000031054105510521F021E030E040E050E08F
:101D100079018A01E628F728082919293CC0232BD4
:101D2000D1F1260E371E35014601062E04C09694C9
:101D30008794779467940A94D2F721E030E040E0EA
:101D400050E004C0220F331F441F551F6A95D2F77D
:101D500021503040404050402A213B214C215D2100
:101D6000211531054105510521F021E030E040E029
:101D700050E059016A01A628B728C828D9280BC005
:101D8000821593052CF01C01AA24BB24650103C015
:101D9000EE24FF24870111969C91D20111968C911B
:101DA000981709F445C0992339F0A80197012A1919
:101DB0003B094C095D0906C0A60195012E193F0992
:101DC000400B510B57FD08C01182338222822483BD
:101DD0003583468357831DC081E08183338222820D
:101DE00088279927DC01821B930BA40BB50B8483F6
:101DF0009583A683B7830DC0220F331F441F551F41
:101E0000248335834683578382819381019793830B
:101E100082832481358146815781DA01C901019786
:101E2000A109B1098F5F9F4FAF4FBF4328F30BC08C
:101E3000918333822282EA0CFB1C0C1D1D1DE4825F
:101E4000F5820683178383E0808324813581468170
:101E5000578157FF1AC0C901AA2797FDA095BA2F2D
:101E600081709070A070B070569547953795279502
:101E7000822B932BA42BB52B84839583A683B783C6
:101E800082819381019693838283DF0101C0D20115
:101E9000CD01CDB7DEB7E2E10C94B236A0E2B0E0FE
:101EA000E4E5FFE00C94A23669837A838B839C83FC
:101EB0002D833E834F835887E9E0EE2EF12CEC0E04
:101EC000FD1ECE010196B7010E9452148E010F5ED5
:101ED0001F4FCE010596B8010E9452148A8991E0E5
:101EE00089278A8BC701B801AE01475E5F4F0E9408
:101EF000020E0E947D13A096E6E00C94BE36A0E28E
:101F0000B0E0E5E8FFE00C94A23669837A838B8326
:101F10009C832D833E834F835887F9E0EF2EF12C6D
:101F2000EC0EFD1ECE010196B7010E9452148E01E7
:101F30000F5E1F4FCE010596B8010E945214C701D3
:101F4000B801AE01475E5F4F0E94020E0E947D13F2
:101F5000A096E6E00C94BE36A0E2B0E0E2EBFFE033
:101F60000C94963669837A838B839C832D833E837E
:101F70004F835887CE010196BE01675F7F4F0E9455
:101F80005214CE010596BE016F5E7F4F0E9452141F
:101F90009985923088F089898230C8F0943019F49C
:101FA000823051F404C0843029F4923081F48EE6FA
:101FB00090E0C6C0923049F420E09A858A8998134F
:101FC00021E02A87CE010996BBC0823049F420E087
:101FD0009A858A89981321E02A8BCE014196B0C058
:101FE0002D843E844F8458886D887E888F88988C95
:101FF000EE24FF248701AA24BB24650140E050E0C1
:1020000060E070E0E0E0F0E0C10181709070892B49
:10201000E9F0E60CF71C081D191D9A01AB012A0D09
:102020003B1D4C1D5D1D80E090E0A0E0B0E0E6149B
:10203000F7040805190520F481E090E0A0E0B0E085
:10204000BA01A901480F591F6A1F7B1FAA0CBB1CAC
:10205000CC1CDD1C97FE08C081E090E0A0E0B0E061
:10206000A82AB92ACA2ADB2A3196E032F10549F0BA
:10207000660C771C881C991C5694479437942794B7
:10208000C3CFFA85EA892B893C898B859C85280FEB
:10209000391F2E5F3F4F17C0CA0181709070892B86
:1020A00061F016950795F794E79480E090E0A0E042
:1020B000B0E8E82AF92A0A2B1B2B769567955795E5
:1020C00047952F5F3F4F77FDE7CF0CC0440F551F5B
:1020D000661F771F17FD4160EE0CFF1C001F111FCC
:1020E00021503040403090E0590790E0690790E47B
:1020F000790760F32B8F3C8FDB01CA018F779070DB
:10210000A070B07080349105A105B10561F447FD60
:102110000AC0E114F1040105110529F0405C5F4F8C
:102120006F4F7F4F40781A8EFE1711F081E08A8F33
:102130004D8F5E8F6F8F78A383E0898FCE01499694
:102140000E947D13A096E2E10C94B236A8E1B0E0C3
:10215000ECEAF0E10C949E3669837A838B839C834E
:102160002D833E834F835887B9E0EB2EF12CEC0E84
:10217000FD1ECE010196B7010E9452148E010F5E22
:102180001F4FCE010596B8010E94521429852230B6
:1021900008F47EC03989323010F4B8017CC08A85D9
:1021A0009A8989278A87243011F0223031F4231745
:1021B00009F06EC06EE670E06EC0343039F41D86F2
:1021C0001E861F86188A1C861B8604C0323021F4A6
:1021D00084E08987B7015FC02B853C858B899C890A
:1021E000281B390B3C872B87ED84FE840F851889CB
:1021F000AD88BE88CF88D88CEA14FB040C051D0579
:1022000040F4EE0CFF1C001F111F215030403C8792
:102210002B8720E030E040E050E080E090E0A0E05C
:10222000B0E460E070E0EA14FB040C051D0540F02A
:10223000282B392B4A2B5B2BEA18FB080C091D09AC
:10224000B695A79597958795EE0CFF1C001F111F5B
:102250006F5F7F4F6F31710531F7DA01C9018F77F9
:102260009070A070B07080349105A105B10561F443
:1022700027FD0AC0E114F1040105110529F0205CD5
:102280003F4F4F4F5F4F20782D873E874F87588BAA
:10229000BE01675F7F4FCB010E947D136896EAE025
:1022A0000C94BA36A8E1B0E0E8E5F1E10C94A2366E
:1022B00069837A838B839C832D833E834F835887E6
:1022C00089E0E82EF12CEC0EFD1ECE010196B7013F
:1022D0000E9452148E010F5E1F4FCE010596B80169
:1022E0000E9452148985823040F08989823028F01A
:1022F000C701B8010E94CA1401C08FEF6896E6E0DA
:102300000C94BE36A8E1B0E0E8E8F1E10C94A23606
:1023100069837A838B839C832D833E834F83588785
:1023200089E0E82EF12CEC0EFD1ECE010196B701DE
:102330000E9452148E010F5E1F4FCE010596B80108
:102340000E9452148985823040F08989823028F0B9
:10235000C701B8010E94CA1401C08FEF6896E6E079
:102360000C94BE36A8E1B0E0E8EBF1E10C94A236A3
:1023700069837A838B839C832D833E834F83588725
:1023800089E0E82EF12CEC0EFD1ECE010196B7017E
:102390000E9452148E010F5E1F4FCE010596B801A8
:1023A0000E9452148985823040F08989823028F059
:1023B000C701B8010E94CA1401C081E06896E6E036
:1023C0000C94BE36ACE0B0E0E8EEF1E10C94A63639
:1023D00069837A838B839C83CE010196BE016B5FF8
:1023E0007F4F0E9452148D81823061F1823050F112
:1023F000843021F48E81882351F12EC02F813885BD
:1024000037FD20C06E812F3131051CF06623F9F0B5
:1024100023C08EE190E0821B930B29853A854B8582
:102420005C8504C056954795379527958A95D2F7D0
:102430006623B1F050954095309521953F4F4F4F11
:102440005F4F0EC020E030E040E050E009C02FEFC9
:102450003FEF4FEF5FE704C020E030E040E050E89E
:10246000B901CA012C96E2E00C94C236A8E0B0E0B3
:10247000ECE3F2E10C949E367B018C016115710551
:102480008105910519F482E0898360C083E0898326
:102490008EE1C82ED12CDC82CB82ED82FE820F83AE
:1024A0001887C801B7010E942E13FC013197F7FF6E
:1024B0003BC0222733272E1B3F0B57016801022EFA
:1024C00004C0D694C794B794A7940A94D2F740E076
:1024D00050E060E070E081E090E0A0E0B0E004C097
:1024E000880F991FAA1FBB1F2A95D2F70197A10930
:1024F000B1098E219F21A023B1230097A105B10529
:1025000021F041E050E060E070E04A295B296C294D
:102510007D294D835E836F8378878EE190E08E1BEB
:102520009F0B9C838B8312C0309781F00E2E04C0CA
:10253000EE0CFF1C001F111F0A94D2F7ED82FE82E1
:102540000F831887CE1ADF0ADC82CB821A82CE0173
:1025500001960E947D132896EAE00C94BA36EF9219
:10256000FF920F93DF93CF93CDB7DEB760970FB68F
:10257000F894DEBF0FBECDBFA82F002309F461C0C1
:102580007E010894E11CF11C88E0F70111928A9504
:10259000E9F729833A834B835C836D837E83AF8322
:1025A000988780E2801BE82FFF27E7FDF09549819F
:1025B0005A816B817C81181684F019861A861B86D5
:1025C0001C86882799278E1B9F0B04C0440F551F1C
:1025D000661F771F8A95D2F728C0202F332727FD43
:1025E0003095DB01CA01022E04C0880F991FAA1F73
:1025F000BB1F0A94D2F789879A87AB87BC8704C030
:102600007695679557954795EA95D2F78D819E8186
:10261000AF81B88504C0880F991FAA1FBB1F2A95D8
:10262000D2F7482B592B6A2B7B2B4D875E876F8700
:10263000788B29853A854B855C856D857E85AF8550
:1026400098898A2F60960FB6F894DEBF0FBECDBF73
:10265000CF91DF910F91FF90EF900895EF92FF924D
:102660000F931F937B018C0180E0E81680E0F80651
:1026700081E0080780E0180788F48FEFE816F1047E
:102680000105110531F028F088E090E0A0E0B0E00D
:1026900017C080E090E0A0E0B0E012C080E0E81653
:1026A00080E0F80680E0080781E0180728F088E15C
:1026B00090E0A0E0B0E004C080E190E0A0E0B0E0F5
:1026C00020E230E040E050E0281B390B4A0B5B0B66
:1026D00004C016950795F794E7948A95D2F7F70109
:1026E000EA58FF4F8081281B310941095109C9016E
:1026F0001F910F91FF90EF900895DF92EF92FF925C
:102700000F931F93FC01E480F58006811781D1802F
:102710008081823048F480E090E0A0E1B0E0E82AD7
:10272000F92A0A2B1B2BA5C0843009F49FC08230E4
:1027300021F4EE24FF24870105C0E114F104010512
:10274000110519F4E0E0F0E096C0628173819FEF1B
:10275000623879070CF05BC022E83FEF261B370B8D
:102760002A3131052CF020E030E040E050E02AC072
:10277000B801A701022E04C0769567955795479535
:102780000A94D2F781E090E0A0E0B0E004C0880FA6
:10279000991FAA1FBB1F2A95D2F70197A109B1095A
:1027A0008E219F21A023B1230097A105B10521F01F
:1027B00081E090E0A0E0B0E09A01AB01282B392B3A
:1027C0004A2B5B2BDA01C9018F779070A070B07033
:1027D00080349105A105B10539F427FF09C0205CBB
:1027E0003F4F4F4F5F4F04C0215C3F4F4F4F5F4FF4
:1027F000E0E0F0E02030A0E03A07A0E04A07A0E4E3
:102800005A0710F0E1E0F0E079018A0127C0603852
:10281000710564F5FB01E158FF4FD801C7018F77BF
:102820009070A070B07080349105A105B10539F4A5
:10283000E7FE0DC080E490E0A0E0B0E004C08FE3CC
:1028400090E0A0E0B0E0E80EF91E0A1F1B1F17FF82
:1028500005C016950795F794E794319687E016958D
:102860000795F794E7948A95D1F705C0EE24FF24E5
:102870008701EFEFF0E06E2F679566276795902F41
:102880009F77D794DD24D7948E2F8695492F462B9A
:10289000582F5D29B701CA011F910F91FF90EF904A
:1028A000DF900895FC01DB01408151812281622F7C
:1028B0006F7770E0221F2227221F9381892F880FB4
:1028C000822B282F30E0991F9927991F11969C93EE
:1028D000119721153105A9F54115510561057105BE
:1028E00011F482E037C082E89FEF13969C938E9399
:1028F00012979A01AB0167E0220F331F441F551F47
:102900006A95D1F783E08C930DC0220F331F441FCB
:10291000551F12968D919C911397019713969C9336
:102920008E931297203080E0380780E0480780E4DB
:10293000580758F314962D933D934D935C93179736
:1029400008952F3F310579F4411551056105710551
:1029500019F484E08C93089564FF03C081E08C93A4
:1029600012C01C9210C02F57304013963C932E93E8
:10297000129783E08C9387E0440F551F661F771FE3
:102980008A95D1F7706414964D935D936D937C9303
:10299000179708951F93DC01FB019C91923008F476
:1029A00047C08081823008F443C0943051F41196BE
:1029B0001C91843099F58181682F70E0611B710949
:1029C0003FC0843021F0923031F48230B9F18181FE
:1029D000882389F12DC011961C9111978230F1F056
:1029E00081811817D9F412962D913C911397828109
:1029F00093818217930794F028173907BCF0149637
:102A00008D919D910D90BC91A02D248135814681A1
:102A10005781281739074A075B0718F4112341F03B
:102A20000AC082179307A407B50740F4112319F0D1
:102A300061E070E005C06FEF7FEF02C060E070E022
:102A4000CB011F910895DF93CF93CDB7DEB72797C2
:102A50000FB6F894DEBF0FBECDBF89836A834B8368
:102A60008981843008F0EEC08A81883008F0EAC09D
:102A70008B818F3F09F06FC08981282F30E03F8321
:102A80002E838E819F818130910549F12E813F8176
:102A9000223031052CF48E819F81009761F0D2C0E5
:102AA0002E813F812230310571F18E819F818330EB
:102AB0009105E9F1C7C0AAE3B0E0EAE3F0E0808164
:102AC000482F8A81282F30E081E090E0022E02C05A
:102AD000880F991F0A94E2F7842B8C93B3C0A7E365
:102AE000B0E0E7E3F0E08081482F8A81282F30E0D2
:102AF00081E090E0022E02C0880F991F0A94E2F74D
:102B0000842B8C939FC0A4E3B0E0E4E3F0E08081E9
:102B1000482F8A81282F30E081E090E0022E02C009
:102B2000880F991F0A94E2F7842B8C938BC0A1E342
:102B3000B0E0E1E3F0E08081482F8A81282F30E087
:102B400081E090E0022E02C0880F991F0A94E2F7FC
:102B5000842B8C9377C08B81882309F073C0898183
:102B6000282F30E03D832C838C819D81813091051D
:102B700059F12C813D81223031052CF48C819D81CD
:102B8000009769F05FC02C813D812230310589F1C9
:102B90008C819D818330910509F440C053C0AAE324
:102BA000B0E0EAE3F0E08081482F8A81282F30E00E
:102BB00081E090E0022E02C0880F991F0A94E2F78C
:102BC000809584238C933EC0A7E3B0E0E7E3F0E078
:102BD0008081482F8A81282F30E081E090E0022E0A
:102BE00002C0880F991F0A94E2F7809584238C9382
:102BF00029C0A4E3B0E0E4E3F0E08081482F8A81BB
:102C0000282F30E081E090E0022E02C0880F991F4B
:102C10000A94E2F7809584238C9314C0A1E3B0E07A
:102C2000E1E3F0E08081482F8A81282F30E081E0C5
:102C300090E0022E02C0880F991F0A94E2F7809557
:102C400084238C9327960FB6F894DEBF0FBECDBFBA
:102C5000CF91DF910895DF93CF93CDB7DEB727975C
:102C60000FB6F894DEBF0FBECDBF89836A834B8356
:102C70008981843008F0EEC08A81883008F0EAC08B
:102C80008B818F3F09F06FC08981282F30E03F830F
:102C90002E838E819F818130910549F12E813F8164
:102CA000223031052CF48E819F81009761F0D2C0D3
:102CB0002E813F812230310571F18E819F818330D9
:102CC0009105E9F1C7C0ABE3B0E0EBE3F0E0808150
:102CD000482F8A81282F30E081E090E0022E02C048
:102CE000880F991F0A94E2F7842B8C93B3C0A8E352
:102CF000B0E0E8E3F0E08081482F8A81282F30E0BF
:102D000081E090E0022E02C0880F991F0A94E2F73A
:102D1000842B8C939FC0A5E3B0E0E5E3F0E08081D5
:102D2000482F8A81282F30E081E090E0022E02C0F7
:102D3000880F991F0A94E2F7842B8C938BC0A2E32F
:102D4000B0E0E2E3F0E08081482F8A81282F30E074
:102D500081E090E0022E02C0880F991F0A94E2F7EA
:102D6000842B8C9377C08B81882309F073C0898171
:102D7000282F30E03D832C838C819D81813091050B
:102D800059F12C813D81223031052CF48C819D81BB
:102D9000009769F05FC02C813D812230310589F1B7
:102DA0008C819D818330910509F440C053C0ABE311
:102DB000B0E0EBE3F0E08081482F8A81282F30E0FB
:102DC00081E090E0022E02C0880F991F0A94E2F77A
:102DD000809584238C933EC0A8E3B0E0E8E3F0E064
:102DE0008081482F8A81282F30E081E090E0022EF8
:102DF00002C0880F991F0A94E2F7809584238C9370
:102E000029C0A5E3B0E0E5E3F0E08081482F8A81A6
:102E1000282F30E081E090E0022E02C0880F991F39
:102E20000A94E2F7809584238C9314C0A2E3B0E067
:102E3000E2E3F0E08081482F8A81282F30E081E0B2
:102E400090E0022E02C0880F991F0A94E2F7809545
:102E500084238C9327960FB6F894DEBF0FBECDBFA8
:102E6000CF91DF910895DF93CF9300D000D0CDB7FD
:102E7000DEB789836A838981843008F072C08A81D1
:102E8000883008F06EC08981282F30E03C832B8386
:102E90008B819C818130910549F12B813C812230CD
:102EA00031052CF48B819C81009761F05AC02B81F5
:102EB0003C812230310571F18B819C8183309105F9
:102EC000E9F14FC0ABE3B0E0EBE3F0E08081482FE5
:102ED0008A81282F30E081E090E0022E02C0880F26
:102EE000991F0A94E2F784278C933BC0A8E3B0E0D3
:102EF000E8E3F0E08081482F8A81282F30E081E0EC
:102F000090E0022E02C0880F991F0A94E2F78427EE
:102F10008C9327C0A5E3B0E0E5E3F0E08081482F83
:102F20008A81282F30E081E090E0022E02C0880FD5
:102F3000991F0A94E2F784278C9313C0A2E3B0E0B0
:102F4000E2E3F0E08081482F8A81282F30E081E0A1
:102F500090E0022E02C0880F991F0A94E2F784279E
:102F60008C930F900F900F900F90CF91DF91089559
:102F7000DF93CF9300D000D0CDB7DEB789836A83CB
:102F80008981843008F072C08A81883008F06EC070
:102F90008981282F30E03C832B838B819C81813079
:102FA000910549F12B813C81223031052CF48B8134
:102FB0009C81009761F05AC02B813C812230310501
:102FC00071F18B819C8183309105E9F14FC0ABE3B6
:102FD000B0E0EBE3F0E08081482F8A81282F30E0D9
:102FE00081E090E0022E02C0880F991F0A94E2F758
:102FF000842B8C933BC0A8E3B0E0E8E3F0E0808151
:10300000482F8A81282F30E081E090E0022E02C014
:10301000880F991F0A94E2F7842B8C9327C0A5E3AD
:10302000B0E0E5E3F0E08081482F8A81282F30E08E
:1030300081E090E0022E02C0880F991F0A94E2F707
:10304000842B8C9313C0A2E3B0E0E2E3F0E0808134
:10305000482F8A81282F30E081E090E0022E02C0C4
:10306000880F991F0A94E2F7842B8C930F900F908E
:103070000F900F90CF91DF910895DF93CF9300D001
:1030800000D00F92CDB7DEB78A836B838A818430FC
:1030900008F06CC08B81883008F068C08A81282FC6
:1030A00030E03D832C834C815D814130510541F1FD
:1030B0008C819D818230910534F42C813D812115D4
:1030C000310561F055C04C815D814230510551F1AF
:1030D0008C819D8183309105B9F14AC0E9E3F0E02C
:1030E0008081282F30E08B81882F90E0A90102C0D9
:1030F000559547958A95E2F7CA018170898338C052
:10310000E6E3F0E08081282F30E08B81882F90E08B
:10311000A90102C0559547958A95E2F7CA018170C9
:10312000898326C0E3E3F0E08081282F30E08B81A3
:10313000882F90E0A90102C0559547958A95E2F73E
:10314000CA018170898314C0E0E3F0E08081282FF8
:1031500030E08B81882F90E0A90102C055954795FA
:103160008A95E2F7CA018170898302C08FEF898353
:1031700089810F900F900F900F900F90CF91DF915A
:103180000895DF93CF9300D000D0CDB7DEB78A8308
:103190008A81282F30E03C832B838B819C81813076
:1031A0009105D1F02B813C81223031052CF48B81AB
:1031B0009C81009761F01FC02B813C81223031053A
:1031C00081F08B819C818330910581F014C0E9E30B
:1031D000F0E08081898311C0E6E3F0E0808189839B
:1031E0000CC0E3E3F0E08081898307C0E0E3F0E016
:1031F0008081898302C08FEF898389810F900F902E
:103200000F900F90CF91DF910895DF93CF9300D06F
:1032100000D0CDB7DEB789836A838981282F30E05B
:103220003C832B838B819C8181309105D1F02B8154
:103230003C81223031052CF48B819C81009761F018
:103240001EC02B813C812230310581F08B819C8115
:103250008330910581F013C0EAE3F0E08A81808336
:103260000EC0E7E3F0E08A81808309C0E4E3F0E088
:103270008A81808304C0E1E3F0E08A8180830F903B
:103280000F900F900F90CF91DF910895DF93CF9320
:1032900000D000D0CDB7DEB789836A838981282F1B
:1032A00030E03C832B838B819C8181309105D1F070
:1032B0002B813C81223031052CF48B819C8100973D
:1032C00061F01EC02B813C812230310581F08B8161
:1032D0009C818330910581F013C0EBE3F0E08A819B
:1032E00080830EC0E8E3F0E08A81808309C0E5E3D3
:1032F000F0E08A81808304C0E2E3F0E08A81808389
:103300000F900F900F900F90CF91DF910895DF9362
:10331000CF93CDB7DEB72A970FB6F894DEBF0FBEB6
:10332000CDBF89836A838981833008F026C18A8171
:10333000843008F022C1AFE5B0E0EFE5F0E0808135
:1033400080688C938981282F30E03A872987898586
:103350009A858130910509F476C029853A85223015
:10336000310509F4DBC089859A85009709F005C10C
:1033700083E062E040E00E94231583E062E00E9467
:10338000B8178A81282F30E038872F838F8198855E
:103390008130910521F12F813885223031052CF4BF
:1033A0008F819885009761F046C02F813885223043
:1033B000310521F18F8198858330910571F13BC0F2
:1033C000A5E5B0E0E5E5F0E080818D7F8C93A5E593
:1033D000B0E0E5E5F0E080818E7F8C932CC0A5E520
:1033E000B0E0E5E5F0E080818D7F8C93A5E5B0E06D
:1033F000E5E5F0E0808181608C931DC0A5E5B0E03B
:10340000E5E5F0E0808182608C93A5E5B0E0E5E53C
:10341000F0E080818E7F8C930EC0A5E5B0E0E5E5FD
:10342000F0E0808182608C93A5E5B0E0E5E5F0E016
:10343000808181608C93ABE5B0E0EBE5F0E08081CA
:1034400080648C939AC083E063E040E00E9423157F
:1034500083E063E00E94B8178A81282F30E03E8322
:103460002D838D819E818130910521F12D813E81B9
:10347000223031052CF48D819E81009761F046C089
:103480002D813E812230310521F18D819E81833055
:10349000910571F13BC0A5E5B0E0E5E5F0E0808184
:1034A000877F8C93A5E5B0E0E5E5F0E080818B7F38
:1034B0008C932CC0A5E5B0E0E5E5F0E08081877F46
:1034C0008C93A5E5B0E0E5E5F0E0808184608C9325
:1034D0001DC0A5E5B0E0E5E5F0E0808188608C9353
:1034E000A5E5B0E0E5E5F0E080818B7F8C930EC030
:1034F000A5E5B0E0E5E5F0E0808188608C93A5E586
:10350000B0E0E5E5F0E0808184608C93ABE5B0E06D
:10351000EBE5F0E0808180688C932FC08A81282FB2
:1035200030E03C832B838B819C818230910531F08C
:103530002B813C8123303105C9F01FC0A4E5B0E0E8
:10354000E4E5F0E080818F7B8C9381E062E040E0F5
:103550000E94231581E062E00E94B817ABE5B0E05D
:10356000EBE5F0E0808180628C9307C0A4E5B0E0D9
:10357000E4E5F0E0808180648C932A960FB6F8949D
:10358000DEBF0FBECDBFCF91DF9108951F920F9286
:103590000FB60F9211242F933F934F935F936F9326
:1035A0007F938F939F93AF93BF93EF93FF93DF939B
:1035B000CF93CDB7DEB7E0917F01F09180010995FF
:1035C000CF91DF91FF91EF91BF91AF919F918F913B
:1035D0007F916F915F914F913F912F910F900FBE0F
:1035E0000F901F901895DF93CF9300D0CDB7DEB723
:1035F0008A8382E060E040E00E942B1682E061E076
:1036000040E00E942B168A81881F8827881F8983A3
:103610008981813011F48FEF898380E067E04981EF
:103620000E942B168A81829586958695837081707B
:1036300089838981813011F48FEF898380E066E08E
:1036400049810E942B168A818295869587708170A8
:1036500089838981813011F48FEF898380E065E06F
:1036600049810E942B168A8182958F70817089838F
:103670008981813011F48FEF898380E064E0498192
:103680000E942B1682E062E04FEF0E942B1682E030
:1036900062E040E00E942B1680917A01882309F4B1
:1036A00044C08A81869586958695817089838981B3
:1036B000813011F48FEF898380E067E049810E94B7
:1036C0002B168A81869586958170898389818130C0
:1036D00011F48FEF898380E066E049810E942B1608
:1036E0008A818695817089838981813011F48FEF79
:1036F000898380E065E049810E942B168A81817070
:1037000089838981813011F48FEF898380E064E0BF
:1037100049810E942B1682E062E04FEF0E942B1637
:1037200082E062E040E00E942B160F900F90CF9154
:10373000DF910895DF93CF93CDB7DEB768970FB6CB
:10374000F894DEBF0FBECDBF8FE00E94F31A80E079
:1037500090E0A8E4B2E48D8B9E8BAF8BB88F6D891F
:103760007E898F89988D2BEA3AEA4AEA5EE30E94C5
:10377000AC0FDC01CB01898B9A8BAB8BBC8B69893D
:103780007A898B899C8920E030E040E85FE30E94E1
:10379000B21188231CF481E0888B91C069897A89F1
:1037A0008B899C8920E030E04FE753E40E9452115E
:1037B00018160CF07BC06D897E898F89988D20E06A
:1037C00030E04AE754E40E94A610DC01CB018C876C
:1037D0009D87AE87BF876C857D858E859F8520E020
:1037E00030E04AE753E40E94AC0FDC01CB0188874C
:1037F0009987AA87BB87688579858A859B8520E01C
:1038000030E040E85FE30E94B21188232CF481E0AD
:1038100090E09F838E833FC0688579858A859B85EC
:1038200020E03FEF4FE757E40E94521118164CF585
:103830006C857D858E859F8520E030E040E251E4F7
:103840000E94AC0FDC01CB01BC01CD010E944900FC
:10385000DC01CB019F838E830FC089E190E09D83C3
:103860008C838C819D810197F1F79D838C838E8160
:103870009F8101979F838E838E819F81009769F737
:1038800024C0688579858A859B850E944900DC0172
:10389000CB019F838E838E819F819B838A838A81C4
:1038A0009B810197F1F79B838A830FC069897A898D
:1038B0008B899C890E944900DC01CB01888B888917
:1038C000898389818A95F1F7898368960FB6F89480
:1038D000DEBF0FBECDBFCF91DF910895DF93CF93B1
:1038E000CDB7DEB768970FB6F894DEBF0FBECDBF79
:1038F00088E00E94F31A80E090E0A8E4B2E48D8BA7
:103900009E8BAF8BB88F6D897E898F89988D2BEABE
:103910003AEA4AEA5EE30E94AC0FDC01CB01898BF4
:103920009A8BAB8BBC8B69897A898B899C8920E0C7
:1039300030E040E85FE30E94B21188231CF481E08C
:10394000888B91C069897A898B899C8920E030E0D5
:103950004FE753E40E94521118160CF07BC06D899A
:103960007E898F89988D20E030E04AE754E40E94F8
:10397000A610DC01CB018C879D87AE87BF876C8545
:103980007D858E859F8520E030E04AE753E40E94E4
:10399000AC0FDC01CB0188879987AA87BB87688534
:1039A00079858A859B8520E030E040E85FE30E94CE
:1039B000B21188232CF481E090E09F838E833FC076
:1039C000688579858A859B8520E03FEF4FE757E43E
:1039D0000E94521118164CF56C857D858E859F8549
:1039E00020E030E040E251E40E94AC0FDC01CB016A
:1039F000BC01CD010E944900DC01CB019F838E8375
:103A00000FC089E190E09D838C838C819D8101971B
:103A1000F1F79D838C838E819F8101979F838E8395
:103A20008E819F81009769F724C0688579858A8592
:103A30009B850E944900DC01CB019F838E838E8190
:103A40009F819B838A838A819B810197F1F79B8366
:103A50008A830FC069897A898B899C890E94490071
:103A6000DC01CB01888B8889898389818A95F1F76C
:103A7000898368960FB6F894DEBF0FBECDBFCF9195
:103A8000DF9108950F931F93DF93CF93CDB7DEB7E8
:103A9000CA55D0400FB6F894DEBF0FBECDBF80E050
:103AA00067E04FEF0E94231580E066E04FEF0E9431
:103AB000231580E065E04FEF0E94231580E064E06D
:103AC0004FEF0E94231582E060E04FEF0E94231524
:103AD00082E061E04FEF0E94231582E062E04FEF49
:103AE0000E942315FE01E95AFF4F80E090E0A0EF0D
:103AF000B1E480839183A283B3838E010D5A1F4F5B
:103B0000FE01E95AFF4F608171818281938120E03B
:103B100030E04AE753E40E94AC0FDC01CB01F8012E
:103B200080839183A283B383FE01ED5AFF4F6081AE
:103B300071818281938120E030E040E85FE30E9460
:103B4000B211882344F4FE01EF5AFF4F81E090E068
:103B50009183808364C0FE01ED5AFF4F60817181C3
:103B60008281938120E03FEF4FE757E40E9452119A
:103B700018160CF043C0FE01E95AFF4F60817181B5
:103B80008281938120E030E040E251E40E94AC0F5A
:103B9000DC01CB018E010F5A1F4FBC01CD010E94E9
:103BA0004900DC01CB01F801918380831FC0FE0135
:103BB000E15BFF4F89E190E091838083FE01E15B4F
:103BC000FF4F808191810197F1F7FE01E15BFF4F8B
:103BD00091838083DE01AF5ABF4FFE01EF5AFF4F42
:103BE00080819181019711969C938E93FE01EF5AEB
:103BF000FF4F808191810097D1F627C08E010F5A27
:103C00001F4FFE01ED5AFF4F6081718182819381C8
:103C10000E944900DC01CB01F80191838083DE0121
:103C2000A35BBF4FFE01EF5AFF4F808191818D93BF
:103C30009C93FE01E35BFF4F808191810197F1F737
:103C4000FE01E35BFF4F9183808380E20E94F31AC1
:103C500080E20E94F31A80E80E94F31AFE01E75BFB
:103C6000FF4F80E090E0A8E4B2E480839183A283D8
:103C7000B3838E010B5B1F4FFE01E75BFF4F60813B
:103C80007181828193812BEA3AEA4AEA5EE30E94DB
:103C9000AC0FDC01CB01F80180839183A283B38355
:103CA000FE01EB5BFF4F608171818281938120E097
:103CB00030E040E85FE30E94B211882334F4FE0153
:103CC000EC5BFF4F81E08083A7C0FE01EB5BFF4F01
:103CD000608171818281938120E030E04FE753E47D
:103CE0000E94521118160CF087C0FE01E75BFF4FCF
:103CF000608171818281938120E030E04AE754E461
:103D00000E94A610DC01CB01FE01E05CFF4F808326
:103D10009183A283B383FE01E05CFF4F60817181D8
:103D20008281938120E030E04AE753E40E94AC0FA7
:103D3000DC01CB018CAF9DAFAEAFBFAF6CAD7DAD45
:103D40008EAD9FAD20E030E040E85FE30E94B2110D
:103D500088232CF481E090E09BAF8AAF42C06CAD29
:103D60007DAD8EAD9FAD20E03FEF4FE757E40E9461
:103D70005211181664F5FE01E05CFF4F60817181FD
:103D80008281938120E030E040E251E40E94AC0F58
:103D9000DC01CB01BC01CD010E944900DC01CB015B
:103DA0009BAF8AAF0FC089E190E099AF88AF88AD33
:103DB00099AD0197F1F799AF88AF8AAD9BAD0197A7
:103DC0009BAF8AAF8AAD9BAD009769F72EC06CADF3
:103DD0007DAD8EAD9FAD0E944900DC01CB019BAF54
:103DE0008AAF8AAD9BAD9FAB8EAB8EA99FA9019781
:103DF000F1F79FAB8EAB19C08E010C5B1F4FFE011C
:103E0000EB5BFF4F60817181828193810E94490049
:103E1000DC01CB01F8018083FE01EC5BFF4F808168
:103E20008DAB8DA98A95F1F78DAB80E00E94F31AD6
:103E300080EF0E94F31A80E090E0A8E4B2E489AB3E
:103E40009AABABABBCAB69A97AA98BA99CA92BEAAD
:103E50003AEA4AEA5EE30E94AC0FDC01CB018DA78F
:103E60009EA7AFA7B8AB6DA57EA58FA598A920E0AA
:103E700030E040E85FE30E94B21188231CF481E047
:103E80008CA791C06DA57EA58FA598A920E030E0F4
:103E90004FE753E40E94521118160CF07BC069A939
:103EA0007AA98BA99CA920E030E04AE754E40E945B
:103EB000A610DC01CB0188A799A7AAA7BBA768A574
:103EC00079A58AA59BA520E030E04AE753E40E944B
:103ED000AC0FDC01CB018CA39DA3AEA3BFA36CA14F
:103EE0007DA18EA19FA120E030E040E85FE30E9429
:103EF000B21188232CF481E090E09BA38AA33FC0F9
:103F00006CA17DA18EA19FA120E03FEF4FE757E478
:103F10000E94521118164CF568A579A58AA59BA593
:103F200020E030E040E251E40E94AC0FDC01CB0124
:103F3000BC01CD010E944900DC01CB019BA38AA3F7
:103F40000FC089E190E099A388A388A199A1019766
:103F5000F1F799A388A38AA19BA101979BA38AA3A8
:103F60008AA19BA1009769F724C06CA17DA18EA1B5
:103F70009FA10E944900DC01CB019BA38AA38AA1D7
:103F80009BA19F8F8E8F8E8D9F8D0197F1F79F8FB5
:103F90008E8F0FC06DA57EA58FA598A90E944900A0
:103FA000DC01CB018CA78CA58D8F8D8D8A95F1F7C7
:103FB0008D8F80E00E94F31A80E10E94F31A80E066
:103FC00090E0A0EAB0E4898F9A8FAB8FBC8F698DA7
:103FD0007A8D8B8D9C8D20E030E04AE753E40E947F
:103FE000AC0FDC01CB018D8B9E8BAF8BB88F6D89B5
:103FF0007E898F89988D20E030E040E85FE30E9461
:10400000B21188232CF481E090E09C8B8B8B3FC015
:104010006D897E898F89988D20E03FEF4FE757E4C7
:104020000E94521118164CF5698D7A8D8B8D9C8DDE
:1040300020E030E040E251E40E94AC0FDC01CB0113
:10404000BC01CD010E944900DC01CB019C8B8B8B14
:104050000FC089E190E09A8B898B89899A890197B1
:10406000F1F79A8B898B8B899C8901979C8B8B8B21
:104070008B899C89009769F714C06D897E898F8927
:10408000988D0E944900DC01CB019C8B8B8B8B8926
:104090009C89988B8F878F8598890197F1F7988BEA
:1040A0008F8780E00E94F31A80E60E94F31A80E076
:1040B00090E0A0EAB0E48B879C87AD87BE876B85D4
:1040C0007C858D859E8520E030E04AE753E40E94A0
:1040D000AC0FDC01CB018F839887A987BA876F81EA
:1040E000788589859A8520E030E040E85FE30E948A
:1040F000B21188232CF481E090E09E838D833FC031
:104100006F81788589859A8520E03FEF4FE757E4F6
:104110000E94521118164CF56B857C858D859E8505
:1041200020E030E040E251E40E94AC0FDC01CB0122
:10413000BC01CD010E944900DC01CB019E838D832F
:104140000FC089E190E09C838B838B819C810197D8
:10415000F1F79C838B838D819E8101979E838D8354
:104160008D819E81009769F714C06F81788589855C
:104170009A850E944900DC01CB019E838D838D814D
:104180009E819A83898389819A810197F1F79A8325
:10419000898381E080937A01C65ADF4F0FB6F89485
:1041A000DEBF0FBECDBFCF91DF911F910F9108955C
:1041B000DF93CF93CDB7DEB76B970FB6F894DEBF22
:1041C0000FBECDBF8A8F6B8F8A8D823008F0D8C02A
:1041D0008B8D803108F0D4C08A8D882F90E0002428
:1041E000969587950794969587950794982F802D97
:1041F000982F8B8D890F898F898D8068898F898D04
:104200000E94F31A80E090E0A8E4B2E48D8B9E8BCC
:10421000AF8BB88F6D897E898F89988D2BEA3AEAAA
:104220004AEA5EE30E94AC0FDC01CB01898B9A8BDA
:10423000AB8BBC8B69897A898B899C8920E030E0C3
:1042400040E85FE30E94B21188231CF481E0888B70
:1042500091C069897A898B899C8920E030E04FE799
:1042600053E40E94521118160CF07BC06D897E89B0
:104270008F89988D20E030E04AE754E40E94A61030
:10428000DC01CB018C879D87AE87BF876C857D85E0
:104290008E859F8520E030E04AE753E40E94AC0F12
:1042A000DC01CB0188879987AA87BB8768857985D8
:1042B0008A859B8520E030E040E85FE30E94B211F0
:1042C00088232CF481E090E09F838E833FC0688533
:1042D00079858A859B8520E03FEF4FE757E40E9470
:1042E000521118164CF56C857D858E859F8520E0D2
:1042F00030E040E251E40E94AC0FDC01CB01BC0194
:10430000CD010E944900DC01CB019F838E830FC049
:1043100089E190E09D838C838C819D810197F1F7E9
:104320009D838C838E819F8101979F838E838E8155
:104330009F81009769F724C0688579858A859B8568
:104340000E944900DC01CB019F838E838E819F8177
:104350009B838A838A819B810197F1F79B838A8360
:104360000FC069897A898B899C890E944900DC0188
:10437000CB01888B8889898389818A95F1F7898324
:104380006B960FB6F894DEBF0FBECDBFCF91DF9115
:104390000895DF93CF9300D000D00F92CDB7DEB752
:1043A0009B838A836C834D838C816D810E94D8208E
:1043B0008C818230F0F48D818031D8F419820EC066
:1043C0008981282F30E08A819B81FC01E20FF31F55
:1043D00080810E94012289818F5F89838981282FB2
:1043E00030E08A819B81FC01E20FF31F80818823EA
:1043F00039F70F900F900F900F900F90CF91DF91A2
:104400000895DF93CF9300D00F92CDB7DEB78B83A3
:1044100082E060E04FEF0E942B1682E061E040E016
:104420000E942B168B81881F8827881F8A838A8188
:10443000813011F48FEF8A8380E067E04A810E9427
:104440002B168B81829586958695837081708A83E1
:104450008A81813011F48FEF8A8380E066E04A819F
:104460000E942B168B8182958695877081708A8336
:104470008A81813011F48FEF8A8380E065E04A8180
:104480000E942B168B8182958F7081708A838A811E
:10449000813011F48FEF8A8380E064E04A810E94CA
:1044A0002B1682E062E04FEF0E942B1682E062E062
:1044B00040E00E942B168B818695869586958170AB
:1044C0008A838A81813011F48FEF8A8380E067E0EC
:1044D0004A810E942B168B818695869581708A83EE
:1044E0008A81813011F48FEF8A8380E066E04A810F
:1044F0000E942B168B81869581708A838A818130F8
:1045000011F48FEF8A8380E065E04A810E942B16C8
:104510008B8181708A838A81813011F48FEF8A8345
:1045200080E064E04A810E942B1682E062E04FEF57
:104530000E942B1682E062E040E00E942B160E944F
:10454000B72289838981803129F481E060E00E946B
:10455000D82007C08981803521F480E060E00E9486
:10456000D8200F900F900F90CF91DF910895DF9397
:10457000CF93CDB7DEB7E6970FB6F894DEBF0FBE88
:10458000CDBF80E067E040E00E94231580E066E058
:1045900040E00E94231580E065E040E00E94231582
:1045A00080E064E040E00E94231582E060E040E0AB
:1045B0000E942B1682E061E04FEF0E942B1680E0F4
:1045C00090E0A8E4B2E489AB9AABABABBCAB69A911
:1045D0007AA98BA99CA92BEA3AEA4AEA5EE30E94EF
:1045E000AC0FDC01CB018DA79EA7AFA7B8AB6DA523
:1045F0007EA58FA598A920E030E040E85FE30E9407
:10460000B21188231CF481E08CA791C06DA57EA512
:104610008FA598A920E030E04FE753E40E945211A3
:1046200018160CF07BC069A97AA98BA99CA920E077
:1046300030E04AE754E40E94A610DC01CB0188A7D1
:1046400099A7AAA7BBA768A579A58AA59BA520E0DD
:1046500030E04AE753E40E94AC0FDC01CB018CA3AD
:104660009DA3AEA3BFA36CA17DA18EA19FA120E0BD
:1046700030E040E85FE30E94B21188232CF481E02F
:1046800090E09BA38AA33FC06CA17DA18EA19FA1B6
:1046900020E03FEF4FE757E40E94521118164CF507
:1046A00068A579A58AA59BA520E030E040E251E409
:1046B0000E94AC0FDC01CB01BC01CD010E9449007E
:1046C000DC01CB019BA38AA30FC089E190E099A3F1
:1046D00088A388A199A10197F1F799A388A38AA13A
:1046E0009BA101979BA38AA38AA19BA1009769F72D
:1046F00024C06CA17DA18EA19FA10E944900DC0174
:10470000CB019BA38AA38AA19BA19F8F8E8F8E8DA5
:104710009F8D0197F1F79F8F8E8F0FC06DA57EA59E
:104720008FA598A90E944900DC01CB018CA78CA51C
:104730008D8F8D8D8A95F1F78D8F82E062E040E05C
:104740000E942B1680E090E0A0EAB0E4898F9A8F57
:10475000AB8FBC8F698D7A8D8B8D9C8D20E030E086
:104760004AE753E40E94AC0FDC01CB018D8B9E8B9A
:10477000AF8BB88F6D897E898F89988D20E030E06E
:1047800040E85FE30E94B21188232CF481E090E0BE
:104790009C8B8B8B3FC06D897E898F89988D20E0A3
:1047A0003FEF4FE757E40E94521118164CF5698D00
:1047B0007A8D8B8D9C8D20E030E040E251E40E94A8
:1047C000AC0FDC01CB01BC01CD010E944900DC0132
:1047D000CB019C8B8B8B0FC089E190E09A8B898BEE
:1047E00089899A890197F1F79A8B898B8B899C89A2
:1047F00001979C8B8B8B8B899C89009769F714C0E0
:104800006D897E898F89988D0E944900DC01CB01DA
:104810009C8B8B8B8B899C89988B8F878F859889B4
:104820000197F1F7988B8F8782E062E04FEF0E944B
:104830002B1680E00E94C1188EAB8EA980778EABBC
:1048400082E062E040E00E942B1680E090E0A0EA67
:10485000B0E48B879C87AD87BE876B857C858D8513
:104860009E8520E030E04AE753E40E94AC0FDC0173
:10487000CB018F839887A987BA876F8178858985CF
:104880009A8520E030E040E85FE30E94B21188237F
:104890002CF481E090E09E838D833FC06F8178850A
:1048A00089859A8520E03FEF4FE757E40E94521137
:1048B00018164CF56B857C858D859E8520E030E053
:1048C00040E251E40E94AC0FDC01CB01BC01CD0100
:1048D0000E944900DC01CB019E838D830FC089E1DA
:1048E00090E09C838B838B819C810197F1F79C8363
:1048F0008B838D819E8101979E838D838D819E8187
:10490000009769F714C06F81788589859A850E9420
:104910004900DC01CB019E838D838D819E819A832A
:10492000898389819A810197F1F79A83898382E04B
:1049300062E04FEF0E942B1680E00E94C1188DAB01
:104940008DA9982F92959F708EA9892B8EAB8EA9D9
:104950008F778EAB80E06FEF0E9405198EA9E696E7
:104960000FB6F894DEBF0FBECDBFCF91DF91089593
:10497000DF93CF9300D000D000D0CDB7DEB79D83BA
:104980008C836E838E81883078F50E94B7228B836A
:104990008B8180688B838E81882F90E0880F991F90
:1049A000880F991F880F991F8A838A8180648A8360
:1049B0008A818F778A838A810E94F31A19820EC0B6
:1049C0008981282F30E08C819D81FC01E20FF31F4B
:1049D00080810E94012289818F5F8983898188304B
:1049E00078F38B810E94F31A26960FB6F894DEBFF7
:1049F0000FBECDBFCF91DF910895DF93CF930F927C
:104A0000CDB7DEB789838981883018F489810E9407
:104A100001220F90CF91DF910895DF93CF93CDB70F
:104A2000DEB72E970FB6F894DEBF0FBECDBF81E084
:104A30000E94F31A80E090E0A0E0B0E48B879C87AE
:104A4000AD87BE876B857C858D859E8520E030E0B7
:104A50004AE753E40E94AC0FDC01CB018F839887B7
:104A6000A987BA876F81788589859A8520E030E0AB
:104A700040E85FE30E94B21188232CF481E090E0CB
:104A80009E838D833FC06F81788589859A8520E0DC
:104A90003FEF4FE757E40E94521118164CF56B8513
:104AA0007C858D859E8520E030E040E251E40E94C7
:104AB000AC0FDC01CB01BC01CD010E944900DC013F
:104AC000CB019E838D830FC089E190E09C838B8313
:104AD0008B819C810197F1F79C838B838D819E81D3
:104AE00001979E838D838D819E81009769F714C005
:104AF0006F81788589859A850E944900DC01CB0108
:104B00009E838D838D819E819A83898389819A81F9
:104B10000197F1F79A8389832E960FB6F894DEBF3A
:104B20000FBECDBFCF91DF910895DF93CF93CDB767
:104B3000DEB72E970FB6F894DEBF0FBECDBF82E072
:104B40000E94F31A80E090E0A0E0B0E48B879C879D
:104B5000AD87BE876B857C858D859E8520E030E0A6
:104B60004AE753E40E94AC0FDC01CB018F839887A6
:104B7000A987BA876F81788589859A8520E030E09A
:104B800040E85FE30E94B21188232CF481E090E0BA
:104B90009E838D833FC06F81788589859A8520E0CB
:104BA0003FEF4FE757E40E94521118164CF56B8502
:104BB0007C858D859E8520E030E040E251E40E94B6
:104BC000AC0FDC01CB01BC01CD010E944900DC012E
:104BD000CB019E838D830FC089E190E09C838B8302
:104BE0008B819C810197F1F79C838B838D819E81C2
:104BF00001979E838D838D819E81009769F714C0F4
:104C00006F81788589859A850E944900DC01CB01F6
:104C10009E838D838D819E819A83898389819A81E8
:104C20000197F1F79A8389832E960FB6F894DEBF29
:104C30000FBECDBFCF91DF910895DF93CF9300D00A
:104C40000F92CDB7DEB79B838A8319820EC089810C
:104C5000282F30E08A819B81FC01E20FF31F8081C5
:104C60000E94012289818F5F89838981282F30E00A
:104C70008A819B81FC01E20FF31F8081882339F731
:104C80000F900F900F90CF91DF9108958F929F9288
:104C9000AF92BF92CF92DF92EF92FF920F931F934A
:104CA000DF93CF93CDB7DEB768970FB6F894DEBF2A
:104CB0000FBECDBF6D8B7E8B8F8B988F6D897E895C
:104CC0008F89988D20E030E040E050E00E94B211E2
:104CD0008823C4F58DE20E9401228AE060E00E94F0
:104CE000A627DC01CB01BC01CD010E943612DC01FC
:104CF000CB01BC01CD012D893E894F89588D0E9481
:104D0000AC0FDC01CB019C01AD0160E070E080E004
:104D100090E00E944E0FDC01CB01BC01CD010E944E
:104D20007500A22EB32EC42ED52EE62EF72E082FF8
:104D3000192FAB82BC82CD82DE82EF82F886098792
:104D40001A872AC08AE060E00E94A627DC01CB0116
:104D5000BC01CD010E943612DC01CB01BC01CD01AA
:104D60002D893E894F89588D0E94AC0FDC01CB0103
:104D7000BC01CD010E947500A22EB32EC42ED52EEB
:104D8000E62EF72E082F192FAB82BC82CD82DE8251
:104D9000EF82F88609871A878B819C81892B9D81F8
:104DA000892B9E81892B9F81892B9885892B9985B9
:104DB000892B9A85892B882309F4B2C08AE0FE01E9
:104DC0003B96DF01982F1D929A95E9F71A8269C0E8
:104DD0008A81882E9924AB80BC80CD80DE80EF80D4
:104DE000F88409851A852A2D3B2D4C2D5D2D6E2DBD
:104DF0007F2D802F912F0F2EFAE0AF2EF02DBB24A8
:104E0000CC24DD24EE24FF2400E010E00E94920771
:104E1000A22EB32EC42ED52EE62EF72E082F192F34
:104E20002A2D3B2D4C2D5D2D6E2D7F2D802F912F0A
:104E3000822F282F205DCE010B96FC01E80DF91D75
:104E40002083AB80BC80CD80DE80EF80F884098534
:104E50001A852A2D3B2D4C2D5D2D6E2D7F2D802FFB
:104E6000912F0F2EFAE0AF2EF02DBB24CC24DD24A1
:104E7000EE24FF2400E010E00E941D01A22EB32EBC
:104E8000C42ED52EE62EF72E082F192FAB82BC820A
:104E9000CD82DE82EF82F88609871A878A818F5F4A
:104EA0008A838B819C81892B9D81892B9E81892B73
:104EB0009F81892B9885892B9985892B9A85892BA8
:104EC000882309F085CF8A81898326C08981882338
:104ED00079F08981882F90E09C0121503040CE01EB
:104EE0000B96FC01E20FF31F80810E94012211C08A
:104EF0008EE20E9401228981882F90E09C0121503E
:104F00003040CE010B96FC01E20FF31F80810E941E
:104F1000012289818150898389818823B9F603C060
:104F200080E30E94012268960FB6F894DEBF0FBEA0
:104F3000CDBFCF91DF911F910F91FF90EF90DF9048
:104F4000CF90BF90AF909F908F900895DF93CF93B5
:104F5000CDB7DEB727970FB6F894DEBF0FBECDBF33
:104F60008E836F8381E090E0A0E0B0E08A839B8332
:104F7000AC83BD838F81898316C08E81282F30E05A
:104F800040E050E08A819B81AC81BD81BC01CD01B4
:104F90000E945536DC01CB018A839B83AC83BD83A1
:104FA0008981815089838981882339F78A819B810E
:104FB000AC81BD81BC01CD0127960FB6F894DEBF50
:104FC0000FBECDBFCF91DF910895DF93CF93CDB7C3
:104FD000DEB7A3E5B0E0E3E5F0E0808188608C9384
:104FE000A3E5B0E0E3E5F0E080818F7B8C93CF9187
:104FF000DF910895DF93CF930F92CDB7DEB789830A
:1050000089810E94F42AAFE5B0E0EFE5F0E080810D
:1050100080688C93A9E5B0E0E9E5F0E080818160EB
:105020008C93A3E5B0E0E3E5F0E080818B7F8C9387
:10503000A3E5B0E0E3E5F0E0808182608C93A3E536
:10504000B0E0E3E5F0E080818E7F8C930F90CF910C
:10505000DF910895DF93CF9300D000D00F92CDB7AA
:10506000DEB789836A834B8389810E94F42A8A810F
:105070000E94022B8B81282F30E03D832C838C8172
:105080009D818330910509F463C02C813D812430DA
:10509000310584F48C819D8181309105D9F12C8179
:1050A0003D81223031050CF044C08C819D810097F8
:1050B000A1F0B3C02C813D812530310509F474C0C5
:1050C0008C819D81853091050CF451C02C813D81EE
:1050D0002630310509F485C0A0C0AFE5B0E0EFE5AA
:1050E000F0E0808180688C93A9E5B0E0E9E5F0E02C
:1050F000808182608C93A3E5B0E0E3E5F0E08081FD
:105100008F7D8C93A3E5B0E0E3E5F0E080818F7EB6
:105110008C9383C0A3E5B0E0E3E5F0E080818F7D70
:105120008C93A3E5B0E0E3E5F0E0808180618C93AF
:1051300074C0A3E5B0E0E3E5F0E0808180628C9389
:10514000A3E5B0E0E3E5F0E080818F7E8C9365C05D
:10515000A3E5B0E0E3E5F0E0808180628C93A3E515
:10516000B0E0E3E5F0E0808180618C9356C0AFE56C
:10517000B0E0EFE5F0E0808180688C93A9E5B0E0D5
:10518000E9E5F0E0808182608C93A3E5B0E0E3E59F
:10519000F0E080818F7D8C93A3E5B0E0E3E5F0E063
:1051A000808180618C9339C0AFE5B0E0EFE5F0E03D
:1051B000808180688C93A9E5B0E0E9E5F0E080812A
:1051C00082608C93A3E5B0E0E3E5F0E0808180624B
:1051D0008C93A3E5B0E0E3E5F0E080818F7E8C93D3
:1051E0001CC0AFE5B0E0EFE5F0E0808180688C9313
:1051F000A9E5B0E0E9E5F0E0808182608C93A3E569
:10520000B0E0E3E5F0E0808180628C93A3E5B0E05C
:10521000E3E5F0E0808180618C93A3E5B0E0E3E515
:10522000F0E080818B7F8C93A3E5B0E0E3E5F0E0D4
:10523000808182608C93A3E5B0E0E3E5F0E08081BB
:105240008E7F8C930F900F900F900F900F90CF91B7
:10525000DF910895DF93CF9300D000D00F92CDB7A8
:10526000DEB789836A834B8389810E94F42A8A810D
:105270000E94022B8B81282F30E03D832C838C8170
:105280009D818430910509F49AC02C813D8125309F
:105290003105ECF48C819D818130910509F454C075
:1052A0002C813D81223031052CF48C819D81009729
:1052B00039F123C12C813D812230310509F453C0DD
:1052C0008C819D818330910509F45CC016C12C81CD
:1052D0003D812630310509F4ACC08C819D8186303A
:1052E00091050CF489C02C813D812730310509F4EA
:1052F000BDC08C819D818830910509F4DBC0FDC063
:10530000AFE5B0E0EFE5F0E0808180688C93A9E53F
:10531000B0E0E9E5F0E0808182608C93A9E5B0E03F
:10532000E9E5F0E0808181608C93A3E5B0E0E3E5FE
:10533000F0E080818F7D8C93A3E5B0E0E3E5F0E0C1
:1053400080818F7E8C93D9C0A3E5B0E0E3E5F0E0E7
:10535000808180628C93A3E5B0E0E3E5F0E080819A
:105360008F7E8C93CAC0A3E5B0E0E3E5F0E08081D6
:1053700080628C93A3E5B0E0E3E5F0E0808180619A
:105380008C93BBC0AFE5B0E0EFE5F0E080818068D2
:105390008C93A9E5B0E0E9E5F0E0808181608C9331
:1053A000A3E5B0E0E3E5F0E0808180628C93A3E5C3
:1053B000B0E0E3E5F0E080818F7E8C939EC0AFE5A6
:1053C000B0E0EFE5F0E0808180688C93A9E5B0E083
:1053D000E9E5F0E0808181608C93A3E5B0E0E3E54E
:1053E000F0E0808180628C93A3E5B0E0E3E5F0E03B
:1053F000808180618C9381C0AFE5B0E0EFE5F0E0A3
:10540000808180688C93A9E5B0E0E9E5F0E08081D7
:1054100082608C93A3E5B0E0E3E5F0E080818062F8
:105420008C93A3E5B0E0E3E5F0E080818F7E8C9380
:1054300064C0AFE5B0E0EFE5F0E0808180688C9378
:10544000A9E5B0E0E9E5F0E0808182608C93A3E516
:10545000B0E0E3E5F0E0808180628C93A3E5B0E00A
:10546000E3E5F0E0808180618C9347C0AFE5B0E078
:10547000EFE5F0E0808180688C93A9E5B0E0E9E594
:10548000F0E0808181608C93A9E5B0E0E9E5F0E08F
:10549000808182608C93A3E5B0E0E3E5F0E0808159
:1054A00080628C93A3E5B0E0E3E5F0E08081806169
:1054B0008C9323C0AFE5B0E0EFE5F0E08081806839
:1054C0008C93A9E5B0E0E9E5F0E0808181608C9300
:1054D000A9E5B0E0E9E5F0E0808182608C93A3E586
:1054E000B0E0E3E5F0E0808180628C93A3E5B0E07A
:1054F000E3E5F0E080818F7E8C93A3E5B0E0E3E507
:10550000F0E080818B7F8C93A3E5B0E0E3E5F0E0F1
:10551000808182608C93A3E5B0E0E3E5F0E08081D8
:105520008E7F8C930F900F900F900F900F90CF91D4
:10553000DF910895DF93CF9300D000D00F92CDB7C5
:10554000DEB789836A834B8389810E94F42A8A812A
:105550000E94022B8B81282F30E03D832C838C818D
:105560009D818130910531F02C813D8122303105C2
:1055700081F01DC0A3E5B0E0E3E5F0E0808180624A
:105580008C93A3E5B0E0E3E5F0E080818F7E8C931F
:105590000EC0A3E5B0E0E3E5F0E0808180628C938B
:1055A000A3E5B0E0E3E5F0E0808180618C93A3E5C2
:1055B000B0E0E3E5F0E080818B7F8C93A3E5B0E081
:1055C000E3E5F0E0808182608C93A3E5B0E0E3E561
:1055D000F0E080818E7F8C930F900F900F900F9052
:1055E0000F90CF91DF910895DF93CF930F92CDB7B6
:1055F000DEB78983E2E5F0E0898180830F90CF9167
:10560000DF910895DF93CF930F92CDB7DEB78983F3
:10561000ECE5F0E0898180830F90CF91DF910895D0
:10562000DF93CF93CDB7DEB7E2E5F0E08081CF9195
:10563000DF910895DF93CF93CDB7DEB7ECE5F0E0CF
:105640008081CF91DF910895DF93CF93CDB7DEB7FF
:10565000AFE5B0E0EFE5F0E0808180688C93A9E5EC
:10566000B0E0E9E5F0E0808181608C93CF91DF913B
:105670000895DF93CF93CDB7DEB7AFE5B0E0EFE5A8
:10568000F0E0808180688C93A9E5B0E0E9E5F0E086
:10569000808182608C93CF91DF910895DF93CF93C7
:1056A000CDB7DEB7A9E5B0E0E9E5F0E080818E7F17
:1056B0008C93CF91DF910895DF93CF93CDB7DEB771
:1056C000A9E5B0E0E9E5F0E080818D7F8C93CF9192
:1056D000DF910895DF93CF93CDB7DEB7A3E5B0E0B8
:1056E000E3E5F0E080818B7F8C93A3E5B0E0E3E518
:1056F000F0E080818D7F8C93A3E5B0E0E3E5F0E0FE
:1057000080818E7F8C93CF91DF910895DF93CF932B
:10571000CDB7DEB7A3E5B0E0E3E5F0E080818B7FB5
:105720008C93A3E5B0E0E3E5F0E0808182608C93A8
:10573000A3E5B0E0E3E5F0E080818E7F8C93CF912C
:10574000DF910895DF93CF93CDB7DEB7AFE5B0E03B
:10575000EFE5F0E0808180688C93CF91DF91089530
:10576000DF93CF93CDB7DEB7AFE5B0E0EFE5F0E084
:1057700080818F778C93CF91DF9108951F920F9244
:105780000FB60F9211242F933F934F935F936F9314
:105790007F938F939F93AF93BF93EF93FF93DF9389
:1057A000CF93CDB7DEB7E0918301F09184010995E5
:1057B000CF91DF91FF91EF91BF91AF919F918F9129
:1057C0007F916F915F914F913F912F910F900FBEFD
:1057D0000F901F9018951F920F920FB60F921124E1
:1057E0002F933F934F935F936F937F938F939F93E9
:1057F000AF93BF93EF93FF93DF93CF93CDB7DEB714
:10580000E0918101F09182010995CF91DF91FF91A3
:10581000EF91BF91AF919F918F917F916F915F9128
:105820004F913F912F910F900FBE0F901F901895A1
:10583000DF93CF93CDB7DEB70E94E5270E94421DCC
:1058400083E062E040E00E94231583E063E040E0F3
:105850000E94231583E064E040E00E94231583E06A
:1058600065E040E00E94231583E066E040E00E948E
:10587000231583E062E00E94B81783E063E00E9492
:10588000B81783E064E00E94B81783E065E00E94E7
:10589000B81783E066E00E94B81780E062E00E94DB
:1058A00087198CE00E94F31A82EC95E390938201B1
:1058B0008093810187E396E39093800180937F0139
:1058C00080E690E060E040E00E94C92180E30E9411
:1058D000012280E30E9401228AE30E94012280E3E8
:1058E0000E94012280E30E9401228AE30E94012299
:1058F00080E30E94012280E30E94012287E690E07B
:1059000061E040E00E94C92180E30E94012281E31E
:105910000E9401228AE30E94012280E30E94012268
:1059200081E30E94012280E06AEF40E00E942A2881
:10593000F8C080917B018C3308F4F3C010927B0196
:1059400080917C018F5F80937C0180917C018C33FE
:1059500008F4B7C010927C0180917D018F5F809325
:105960007D0180917D01883108F47BC010927D011A
:10597000809176018F5F80937601809176018F31DF
:1059800008F43FC081E080937601809177018F5FBA
:1059900080937701809177018D3018F081E08093BA
:1059A0007701809177018A30C0F481E069E00E943C
:1059B000D82080E30E94012280917701882F90E017
:1059C000A0E0B0E0BC01CD010E943612DC01CB01A9
:1059D000BC01CD010E94462614C081E069E00E940E
:1059E000D82080917701882F90E0A0E0B0E0BC0142
:1059F000CD010E943612DC01CB01BC01CD010E9419
:105A00004626809176018A30C0F481E066E00E94EB
:105A1000D82080E30E94012280917601882F90E0B7
:105A2000A0E0B0E0BC01CD010E943612DC01CB0148
:105A3000BC01CD010E94462614C081E066E00E94B0
:105A4000D82080917601882F90E0A0E0B0E0BC01E2
:105A5000CD010E943612DC01CB01BC01CD010E94B8
:105A6000462680917D018A30C0F480E066E00E9485
:105A7000D82080E30E94012280917D01882F90E050
:105A8000A0E0B0E0BC01CD010E943612DC01CB01E8
:105A9000BC01CD010E94462614C080E066E00E9451
:105AA000D82080917D01882F90E0A0E0B0E0BC017B
:105AB000CD010E943612DC01CB01BC01CD010E9458
:105AC000462680917C018A30C0F480E069E00E9423
:105AD000D82080E30E94012280917C01882F90E0F1
